:1000000010C028C027C026C025C024C023C022C0DD
:1000100021C020C01FC01EC01DC01CC01BC01AC0F4
:1000200019C011241FBECFEDCDBF10E0A0E6B0E097
:10003000E6E2F1E003C0C89531960D92A036B10713
:10004000D1F710E0A0E6B0E001C01D92A036B107E4
:10005000E1F701C0D5CFCFEDD0E0DEBFCDBF50E09E
:1000600045E047BB34E038BB20E32ABB5BBB87E4F9
:1000700087B931E123E13699FECF64B145B155230B
:1000800009F048C082EA87B997EC96B918BA71EDC1
:100090007FB93DB92DB93DB92DB93DB92DB93DB99E
:1000A0002DB93DB92DB93DB92DB93DB92DB93DB9E0
:1000B0002DB9852F992782959295907F9827807FDB
:1000C0009827482B4FB93DB92DB93DB92DB93DB948
:1000D0002DB93DB92DB93DB92DB93DB92DB93DB9B0
:1000E0002DB93DB92DB96FB93DB92DB93DB92DB96E
:1000F0003DB92DB93DB92DB93DB92DB93DB92DB990
:100100003DB92DB93DB92DB964E068BB561739F03A
:100110005F5FB1CF543029F0852F8064B4CF50E0B9
:06012000AACF87E4B0CF76
:00000001FF
